:4000000000400020110000005D0400005D04000010B500F043FAC04670B51222224B1A6000F04EFB214801F067F8012000F068FB302000F089FA1E4A1E4B1A601E4C8025D2
:40004000ED0525601D4A116802230B4313601C4A1C4B1A6000221C4B1A601C4A136808218B431360FA20C00000F0E8FA184800F0DBFA88229201174B1A60174A174B1A6087
:4000800080221206164B1A608022D202154B1A604022154B1A601549082000F09BFA082000F08CFA256070BD30001040001BB7000600008004010B400C020B4078002E405D
:4000C0002D3E00007C002E4064F02E406CF02E40DC0500000003014040FF00800000014008010B4000010B40040101401908000010B572B600221F4B1A6000240FE01E4887
:400100006200131959000B00411889881A5AC31858880004104300F09BF90134E4B2012CEDD9EE221206154B1A6099231B04144A1360144A1360144A1360144A117806233B
:400140000B43DBB21370124A124B1A600322124B1A602023114A13601149124A116080210902114A1160114A1360FFF755FF00F05FF910BD6CF02E40601E0000000002408B
:400180000001024000500F4010500F4000700F400300D800080004400C00044000010440001C7B00080104400C0104401801044010B5064C2378002B07D1054B002B02D09F
:4001C000044800E000BF0123237010BD4801002000000000241D0000084B10B5002B03D00749084800E000BF07480368002B00D110BD064B002BFBD09847F9E70000000008
:400200004C010020241D0000C00000200000000070B52F4D11222F49280001F04DF9280000F0E8FB00F0EEFE030D032213409A00D3185A00000C0F242040141822002649EB
:40024000280001F04BF9280000F0D4FB0A3C0A2C14D91F4C17222149200001F02DF9200000F0C8FB012000F063F930E000F026FB2D1A322000F0C0F9013401E000240A2580
:40028000092CF3DD124C2B000A221549200001F025F9200000F0AEFB042D0CDC0C4C12221049200001F008F9200000F0A3FB002000F03EF90BE0064C13220B49200001F062
:4002C000FBF8200000F096FB012000F031F970BDA8010020301D0000441D0000581D0000701D0000B81D0000CC1D000010B5074C12220749200001F0DFF8200000F07AFBC2
:40030000FFF786FF00F0E2FA10BDC046A8010020E01D000070B51E4C14221E49200001F0CBF8200000F066FB00240A2506E000F06DFB2D1A322000F05FF90134092CF6DDBD
:40034000134C2B000A221449200001F0C7F8200000F050FB042D1ADC0D4C12220F49200001F0AAF8200000F045FB002000F060FBFA20800000F040F913220949200001F06A
:400380009BF8200000F036FB012000F051FB70BDA8010020F41D0000701D0000081E00001C1E000010B5074C12220749200001F083F8200000F01EFBFFF7ACFF00F02EFB0D
:4003C00010BDC046A8010020E01D000010B562B600F098FA00F092FC104800F04DFE104800F07CFE0F4C0B220F49200001F064F8200000F0FFFA012000F09AF8012000F028
:4004000017FB084C21220949200001F055F8200000F0F0FA00F03CF9F3E7C046ED020000A5030000A8010020301E00003C1E00000323044A1360044A13600022034B1A60CA
:400440007047C0463000304030003140000E3F4010B50A00002101F038F810BD10B500F0FFFF03680C2B00D1FEE7FEE710B50300084A1068C318084A9A1A802A02DC054AD9
:40048000136005E000F0ECFF0C2303600120404210BDC046C4000020D802002070B50F4E0F4D13E029686B68AC68002202E001C901C30432A242FAD1E868002202E00021EE
:4004C00002C304328242FAD11035013E002EE9D100F0CCFFFFF77AFFFEE7C046010000001C1F000010B50E4A136801218B43136000230AE0032B03D89A000A49505800E02F
:4005000009489900094A885001332F2BF2D9FFF7EFFD034A116801230B43136010BDC04600001040000000005D0400000000002004490A68D2B240239A438001184010436D
:40054000086070470001044010B586B0040000F0DCFD0E4B1B6800930D4B1B680193033C0C4B1B5D02930C4B1B68039304AA0B4B04936B4605930A4B1A600A490A4A116093
:400580001B6800F0C6FD06B010BDC04608010B4000010B406C1E000030001040B6EA0000080010401700008004001040024B1B68012018407047C0460C002E401F231840D5
:4005C0001E3B8340014A13607047C04600E100E001BE704770B504000D001F2802D90020FFF7F6FF1034A40080239B059C4664442068256070BDC04610B5040006E0084BD3
:40060000586800F079FD074B9C46644480231B029C42F4D8024B9868604300F06DFD10BDC80000200080FFFF10B5034B1B7B584300F062FD10BDC046C800002010B50400BA
:400640000F4A116801230B4313600E4A0E4B1A600E4A1368802109020B431360002809D100200CE00120FFF7DFFFFFF79FFF002804D1013C002CF5D1102000E0002010BD98
:4006800060F02E400220000078002E4010002E4010B500F03AFD044A136804218B43136030BF00F036FD10BD10ED00E0034B1868C0231B02184000D00120704700010B4005
:4006C00010B50D4B1A6801218A431A601A68022082431A60094A10683024A043203C204310601068093CA043014311601A68802109060A431A6010BD00F02E4000FF2E40F8
:4007000070B51D4B1B6801241C40002802D0012816D02BE0184B19680122914319601968022081431960154B19682E3081432038014319601968093881430A431A6018E083
:400740000D4B1A6802218A431A600C4A10680725A84301431160116830208143103801431160196801220A431A6002E00020FFF72FFF200070BDC04600F02E4000FF2E4062
:4007800010B500F0C2FC044A1368C02109020B43136000F0BEFC10BD00010B4010B500F0B4FC08490A68084B1A408024E40122430A600A6813408022120213430B6000F034
:4007C000A8FC10BD00010B40FF3FFFFF70B5050000F09BFC0400FFF769FF002803D0FFF7DDFF012100E0002108482840084A1568084B2B40184310601368012901D1FFF780
:40080000BFFF200000F085FC70BDC0460404040010020B40FBFBFBFF10B5244B1B685B0715D5234B5B685B070ED5224B596A042001401F4C62688A4362605A6A82435A62C6
:400840009B69002B00D098470420FFF7BFFF174B1B685B0518D5164B5B685B0510D5154B596A8022D2001140114842688A434260596A114A0A405A62DB69002B00D098478B
:400880008020C000FFF7A2FF084B1B685B030CD5074B5B685B0304D5064B1B6A002B00D098478020C002FFF791FF10BD10020B40DC00002064010020FFFBFFFF024B1B68D5
:4008C000012018407047C04604000440024A106801231840106070471000044010B500F073F810BD10B500F01DF810BD10B5044A1368802109060B431360FFF7EFFF10BD8B
:400900000000244010B5064B1B78002B04D1FFF7E9FF0122024B1A70FFF7E8FF10BDC0468C01002010B5154A154B1A600023154A13600121144A1160144A15480260072449
:4009400014480460144803601448016014490A60144A13600421144A1160144A1360144A1360144A1360144A1360144A1360144A13601268134B1A8010BDC0460B00000277
:400980000000244040002440480024400700008000032440040324401003244044002440000224400402244050002440880E2440C80E2440480F2440080F2440C80F2440E2
:4009C000880F24408E010020064A1168064B0B40902109040B431360044B1A88044B1A607047C04600010240FFFF0FFF8E010020880F244070B50500002402E000F08CFB52
:400A00000134285D0028F9D170BDC046024B1868C00901231840704704010440034B1868C0B27F2290431860C00970471001044004490A68D2B208239A43C000184010430E
:400A40000860704700010440F8B54F464646C0B480468946030B03251D40FA2189000A006A43030A0F210B40642043439D1843461B090B409A00D3185B005B1945460D40E2
:400A80005D1900260027574C1FE0A30705D16421200000F0D5FB002908D1C8214900200000F0CEFB002903D1012302E0012300E00023002B04D04C4A0023B6185F4103E0AC
:400AC0004A4A0023B6185F410134AC42DDD343461B0F012213409A00D3185B004246120E0F210A409B185A1E52004149545A022B16D9AB0705D16421280000F0A1FB002918
:400B000008D1C8214900280000F09AFB002903D1012302E0012300E00023002B00D0013434494C4322000023B6185F4143461A0D03252A4093009B185B004246120C0F2428
:400B400022409B184B432C4A9818002136184F414B461B0D2B409A00D3185B004A46120C14401B198022120449460A4000D00122002A0DD08022D20349461140914201D1EC
:400B8000012200E00022002A02D00B2B00D80C33E12212015A431000002136184F414B461B0B072423409900CB1859004B461A0A0F231A4089180A01521A90000021361893
:400BC0004F414A461209224091008A18520049460B40D0180021801979410CBC90469946F8BDC046B20700000085E2018033E1019C1E00008051010080AEFEFFF0B583B020
:400C000001900E000B0D032423409A00D31858000F0C0F231F40C7190A0F01210A4091008A185100300E18400D18320B1440FA22920062431000340A1C4064210A00624384
:400C4000841832091A4091008A18510064183340E41801993000FFF7F7FE164B18605960154B5E60019A1A60022D01D80C35013C681C1A2358430A2100F05CFAC7193F19CF
:400C8000A308FF186421200000F054FA430018184300FF18C8214900200000F04BFA3818072100F0CDFA002900D10731024B996003B0F0BDC8020020AC02002010B5012294
:400CC000074B1A700023074AD360074AD360074A1370074A136007490748FFF78FFF10BDA802002090010020AC020020C0020020BC020020182007013127180010B5034B99
:400D00001B78002B01D1FFF7D9FF10BDA802002070B50C00431E0F4AD3181D7E022816D18B0705D16421200000F08AFA002908D1C8214900200000F083FA002903D10123D9
:400D400002E0012300E00023002B00D00135280070BDC0469C1E0000F0B55F4656464D464446F0B485B0824614001D00A04BA14A0296039717001DE0009A019BA41A9D4161
:400D80000137BB0705D16421380000F059FA002908D1C8214900380000F052FA002903D1012302E0012300E00023002B01D0924B00E08F4B009300230193002DDCD1009A40
:400DC000019B9D4201D19442D6D8B84641460120FFF79EFF894B5843012399460AE0A41BBD4101239C46E14441464846FFF790FF824B584306000027AF42F0D1A042EED91B
:400E00007E4A00232000290000F020FA7B4941430A000023AB4203D1A14201D900220023A41A9D41471CE122120100232000290000F00CFA0090E121090141430E9B002BD1
:400E400014D0002D03D10AD16D4B9C4207D9009B0C2B0ED90C38009001239B460EE0009B002B09D19B460C33009307E000239B4604E001239B4601E000239B460A00002383
:400E8000AB4203D1A14201D900220023A41A9D413C2200232000290000F0D8F906000101891B8A000023AB4203D1A24201D900220023A41A9D41029403950A21484600F0B8
:400EC00039F905070A21484600F0BAF90C0625430A21380000F02EF904052C430A21380000F0AEF90D042C43FA218900404600F021F905032543FA218900404600F0A0F91B
:400F00000C006421200000F015F9000205436421200000F095F90C000A21200000F00AF9000105430A21200000F08AF90D4353465D600E9BDB055A4695052B431C000A2126
:400F4000009800F0F7F8050525430A21009800F077F90C0425430A21300000F0EBF804032C430A21300000F06BF909020C430A21029D039E280000F0DDF8000104430A2175
:400F8000280000F05DF90C4353461C604B46022B05D80C239C46E1440D3B9C46E044484601301A2358430A2100F0C4F83F184744434698083F186421404600F0BBF843007F
:400FC000181840003F18C8214900404600F0B2F83818072100F034F9002900D107315346996005B03CBC90469946A246AB46F0BD8033E101B20700000085E201805101000F
:40100000C1A8000010B582B0074B1A685B68074CE068002112184B41054C00912000FFF79BFE206802B010BDC802002090010020AC020020014B18647047C04600000020A1
:4010400010B5040000F061F8044A1368C0218B43A4011C43146000F05CF810BD00E400E00122014B1A60704700E100E00122014B1A60704780E100E010B50400FFF7F6FFA3
:401080002000FFF7D7FF0320FFF7DAFFFFF7E8FF10BDC046014B58647047C0460000002010B5040000F031F8044A1168044B0B40A4031C43146000F02CF810BD00E400E05B
:4010C000FF3FFFFF0222014B1A60704700E100E00222014B1A60704780E100E010B50400FFF7F6FF2000FFF7D5FF0320FFF7D8FFFFF7E8FF10BDC0460230800803D001386C
:40110000FDD1C046C046C0467047EFF3108072B6704780F310887047044B1B681F221340082BF9D0024B18607047C0460802244040022440002243088B4274D303098B42B3
:401140005FD3030A8B4244D3030B8B4228D3030C8B420DD3FF22090212BA030C8B4202D31212090265D0030B8B4219D300E0090AC30B8B4201D3CB03C01A5241830B8B42EE
:4011800001D38B03C01A5241430B8B4201D34B03C01A5241030B8B4201D30B03C01A5241C30A8B4201D3CB02C01A5241830A8B4201D38B02C01A5241430A8B4201D34B0281
:4011C000C01A5241030A8B4201D30B02C01A5241CDD2C3098B4201D3CB01C01A524183098B4201D38B01C01A524143098B4201D34B01C01A524103098B4201D30B01C01AB6
:401200005241C3088B4201D3CB00C01A524183088B4201D38B00C01A524143088B4201D34B00C01A5241411A00D20146524110467047FFE701B5002000F006F802BDC0462C
:401240000029F7D076E770477047C046002B11D1002A0FD1002900D1002802D00021C943081C07B4024802A14018029003BDC046D9FFFFFF03B4684601B5029800F006F880
:40128000019B9E4602B00CBC7047C046F0B54D46564644465F46F0B4924683B004000D0099468B422FD82CD04946504600F0AEF829000600200000F0A9F8331A9846203BE4
:4012C0009B4600D574E053465A4693401F005346424693401E00AF4229D826D05B46A41BBD41002B00DA79E0002200230092019301235A469340019301234246934000935B
:4013000019E08242D0D900220023009201930C9B002B01D01C605D600098019903B03CBC90469946A246AB46F0BDA342D6D900220023009201934346002BE8D0FB07720801
:401340001A4346467B080EE0AB4201D1A2420CD8A41A9D41012024196D410021013E24184D41002E06D0AB42EED9013E24196D41002EF8D15B460098019900196941002B20
:4013800022DB2B005A46D3402A004446E2401C005B461500002B2CDB26009E40330026004746BE403200801A994100900191AEE7424620239B1A5246DA40414613004A46D7
:4013C0008A4017001F4382E7424620239B1A2A0046469A402300F3401343D5E74246202300219B1A0022009101920122DA40019282E74246202326009B1ADE402F00B446BC
:40140000974066463B003343C9E7C04610B5002903D100F007F8203002E0081C00F002F810BDC0461C2101231B04984201D3000C10391B0A984201D3000A08391B0998425F
:4014400001D30009043902A2105C40187047C04604030202010101010000000000000000014B18687047C046440100200E4B70B500251E000D4CE41AA410A54204D0AB00FE
:40148000F35898470135F8E700F036FD084B00251E00084CE41AA410A54204D0AB00F35898470135F8E770BD041F0000041F0000041F00000C1F0000002310B59A4203D031
:4014C000CC5CC4540133F9E710BD03008218934202D019700133FAE7704700000EB410B59DB002A9029008610B48822488604861012040421FABC881084804CBA40000684D
:4015000001938C8100F06EF80023029A13701DB010BC08BC03B01847FFFFFF7F44010020F0B58E6885B007000C00039201939E4243D890238A89DB001A423ED00325096976
:40154000236801985B1A029363695D43EB0F5D19029B6D1001331B18AB4200D91D00530510D52900380000F037FB061E14D0029A2169FFF7A1FFA289194B1340802213439F
:40158000A38112E02A00380000F086FB061E0CD12169380000F0D4FA0C23402201203B60A38940421343A38117E0029B2661F61826606561019EED1AA560019BB34200D2C9
:4015C0001E0032000399206800F0A5FA0020A3689B1BA36023689E19266005B0F0BDC0467FFBFFFFF0B59FB0029005938B890F0016001B0610D50B69002B0DD1402100F031
:40160000EBFA38603861002804D10C23029A01381360D8E040237B61002306AD6B6120336B761033AB7634002378002B03D1A31B049312D003E0252BF9D00134F4E7A31B20
:40164000320039000298FFF76BFF431C00D1B4E06A69049B944663446B612378002B00D1ABE00122002352426A6002A95432521801342B60EB60AB601370AB65534E21783E
:401680000522300000F03CFA002807D00123801B83402A68013413432B60EFE72B68DA0604D55322202102A8121811701A0704D553222B2102A81218117022782A2A03D086
:4016C000099B00200A210EE0059A111D12680591002A01DB099204E05242EA60022213432B6001340BE02278303A092A04D84B4301349B180120F6E7002800D009932378F2
:401700002E2B1ED163782A2B0AD1059B02341A1D1B680592002B01DA01235B42079310E000230A201A0001346B6021783039092904D84243013452180123F6E7002B00D047
:401740000792234E21780322300000F0D9F9002806D04023801B83402A68013413432B60217806221B48661C297600F0C9F9002812D0194B002B06D10722059B0733934308
:401780000833059314E005AB00933A00134B2900029800E000BF07E005AB00933A000F4B2900029800F08AF80390039B013304D06B69039A9B186B6135E7BB890B985B06A5
:4017C00001D5012040421FB0F0BDC046C21E0000C81E0000CC1E00000000000021150000F7B5170001938A680B6900900C00934200DA130022003B6043321278002A01D036
:4018000001333B6023689B0602D53B6802333B60062523681D401ED0230043331B785A1E9341226892061CD53020E1184331087021005A1C45310978A2184332023311702F
:401840000FE022000123193201990098089EB047431C0ED00135E3683A689B1A9D42F0DBDAE72200019943320098089DA847431C02D10120404220E006232068E1683A68CB
:4018800003400025042B03D18D1AEB43DB171D40A3682269934201DD9B1AED180027BD420AD0220001231A3201990098089EB047431CDED00137F2E70020FEBDF0B58BB05C
:4018C00006920A0043320793059004920A7E0C00109B6E2A00D1ABE011D8632A22D009D8002A00D1B5E0582A00D0C5E045310A70814A4FE0642A1DD0692A1BD0BCE0732AED
:4019000000D1AAE009D86F2A29D0702A00D0B3E0202209680A43226037E0752A1FD0782A33D0A9E00E001A684236111D196013683370A4E021681A68080606D4490604D51B
:40194000111D19600023D55E02E0111D19601568002D3BDA2D23049A6D42137036E021681A68080606D4490604D51568111D1960ADB202E0111D196015685F4B227E039368
:4019800008276F2A1DD00A271BE022007821453211705A4A19680392081D226818600D68100602D4500600D5ADB2D30702D520231A4322601027002D03D1202322689A4312
:4019C00022602300002243331A7002E00A274A4B03936368A360002B09DB0422216891432160002D05D1049E002B11D07BE0002D79D0049E28003900FFF722FC039B013E8B
:401A00005B5C280033703900FFF794FB051EF1D1082F09D12368DB0706D563682269934202DC3023013E3370049B9B1B23612BE009681A68080607D4490605D5111D19605A
:401A40001368A28A1A8004E0111D1960136862691A600023049E236116E01A68111D1960166800216268300000F04AF8002801D0801B6060636803E0260042363270012341
:401A800023610023049A1370079B09AA00932100069B0598FFF7A4FE431C02D10120404227E02369320006990598079DA847431CF4D0236800259B070FD4099BE0689842F8
:401AC00017DA180015E022000123193206990598079EB047431CE1D00135E368099A9B1A9D42F0DBE9E72600039B42361B7833708EE70BB0F0BDC046D31E0000E41E0000D4
:401B0000C9B28218904204D003788B4202D00130F8E70020704710B5884202D98B18984201D3002305E09B1A013A08D3995C8154FAE7934203D0CC5CC4540133F9E710BDE7
:401B400070B50500002944D00C1F2368002B00DAE418280000F0D8F81E4A13681100002B02D16360146031E0A3420DD92268A018834203D118685B688218226063600C60F1
:401B800024E0A24203D813005A68002AF9D11E689819A0420BD12168711858181960824214D110685268411819605A600EE0A04202D90C232B6009E021686018824203D15B
:401BC000106852684118216062605C60280000F09CF870BDA4010020032370B5CD1C9D43083506000C2D01D20C2501E0002D01DBA94202D90C23336048E0300000F084F8F3
:401C0000234B1C681A002100002913D00B685B1B0DD40B2B02D90B60CC181EE08C4202D1636813601AE04B6863600C0016E00C004968E9E7174C2368002B03D1300000F058
:401C400051F820602900300000F04CF8431C18D00323C41C9C43A0420DD12560300000F054F8200007220B30231D9043C31A0ED05A42E2500BE0211A300000F033F8431C41
:401C8000EBD10C233000336000F03FF8002070BDA4010020A0010020F8B506000C001500002904D11100FFF797FF040018E0002A03D1FFF745FF2C0012E000F027F88542E5
:401CC0000ED929003000FFF787FF071E07D021002A00FFF7F1FB21003000FFF731FF3C002000F8BD002370B5064C050008002360FEF7BCFB431C03D12368002B00D02B605D
:401D000070BDC046D0020020704770470B1F1A68101F002A04DA891804390B68D0180438704700000000000064F5FF7F01000000436865636B696E67206C696768740D0ABE
:401D40000000000043757272656E7420686F75723A2025640D0A00004F757473696465206F662074696D656672616D650D0A00004E756D626572206F6620746F74616C2023
:401D80006D6561737572656D656E74733A20256409204E756D626572206F6620706F736974697665206D6561737572656D656E74733A2025640D0A005475726E696E6720D3
:401DC0004C454473206F6E0D0A0000005475726E696E67204C454473206F66660D0A000057616B696E6720757020616761696E0D0A000000436865636B696E67206D6F69A8
:401E000073747572650D0A005475726E696E672070756D70206F6E0D0A0000005475726E696E672070756D70206F66660D0A00004C6574277320676F0D0A0000476F696EE7
:401E40006720746F20736C65657020756E74696C20696E746572727570740D0A0000000000300F40000400400F400004030405060708090A0B0C0E0F101112131415161735
:401E800018191B1C1D1E1F2021222325262728292A2B2E2F303132333435000000001F003B005A0078009700B500D400F300110130014E011F1C1F1E1F1E1F1F1E1F1E1FF8
:401EC0004300232D302B2000686C4C006566674546470030313233343536373839414243444546003031323334353637383961626364656600000000F8B5C046F8BC08BC81
:401F00009E467047D9010000E5040000F8B5C046F8BC08BC9E467047B1010000301F0000C000002088000000900100000000000000000000D8020020010000000000C05D6B
:401F400080BB000030000000006CDC02F0000000040404000000000000000000000000000000000000000000000000000000000000000000C01E00000000000000000000D2
:401F800000000000000000000000000000000000000000000000000000000000000000000000000000000000000000000000000000000000E400002000000000000000001D
:401FC00000000000000000000000000000000000000000000000000000000000000000000000000000000000000000000000000000000000000000000000000000000000E1
:4020000000000000000000000000000000000000000000000000000000000000000000000000000000000000000000000000000000000000000000000000000000000000A0
:402040000000000000000000000000000000000000000000000000000000000000000000000000000000000000000000000000000000000000000000000000000000000060
:402080000000000000000000000000000000000000000000000000000000000000000000000000000000000000000000000000000000000000000000000000000000000020
:020000040001F9
:0200000490303A
:02000000B273D9
:0200000490402A
:4000000000000000000000000000000000000000000000000000000000000000000000000000000000000000000000000000000000000000000000000000000000000000C0
:400040000000000000000000000000000000000000000000000000000000000000000000000000000000000000000000000000000000000000000000000000000000000080
:0200000490501A
:0C00000000020E34119E00010E3DC411E0
:0200000490600A
:0100000001FE
:00000001FF